:100000000C942A000C9447000C9447000C94470071
:100010000C9447000C9447000C9447000C94470044
:100020000C9447000C9447000C9447000C94470034
:100030000C9447000C9447000C9447000C94470024
:100040000C9447000C9447000C9447000C94470014
:100050000C94470011241FBECFE5D4E0DEBFCDBF16
:0C0060000E9436000C943400F894FFCF8E
:10006C0081E087BB88BBE3E2F4EF3197F1F700C086
:10007C00000018BAE3E2F4EF3197F1F700C000008A
:02008C00F1CFB2
:04008E000C940000CE
:00000001FF
